{
  "contractName": "Auction",
  "address": "0xb47c604A3F94a9f1bF205898accc11CfF5e27587",
  "abi": [
    {
      "anonymous": false,
      "inputs": [
        {
          "indexed": false,
          "internalType": "address",
          "name": "nft",
          "type": "address"
        },
        {
          "indexed": false,
          "internalType": "uint256",
          "name": "tokenId",
          "type": "uint256"
        }
      ],
      "name": "BID",
      "type": "event"
    },
    {
      "anonymous": false,
      "inputs": [
        {
          "indexed": false,
          "internalType": "address",
          "name": "nft",
          "type": "address"
        },
        {
          "indexed": false,
          "internalType": "uint256",
          "name": "tokenId",
          "type": "uint256"
        }
      ],
      "name": "CENCELAUCTION",
      "type": "event"
    },
    {
      "anonymous": false,
      "inputs": [
        {
          "indexed": false,
          "internalType": "address",
          "name": "nft",
          "type": "address"
        },
        {
          "indexed": false,
          "internalType": "uint256",
          "name": "tokenId",
          "type": "uint256"
        },
        {
          "indexed": false,
          "internalType": "uint128",
          "name": "price",
          "type": "uint128"
        },
        {
          "indexed": false,
          "internalType": "uint256",
          "name": "duration",
          "type": "uint256"
        }
      ],
      "name": "CREATETOKENAUCTION",
      "type": "event"
    },
    {
      "anonymous": false,
      "inputs": [
        {
          "indexed": false,
          "internalType": "address",
          "name": "nft",
          "type": "address"
        },
        {
          "indexed": false,
          "internalType": "uint256",
          "name": "tokenId",
          "type": "uint256"
        }
      ],
      "name": "EXCUTESALE",
      "type": "event"
    },
    {
      "inputs": [
        {
          "internalType": "address",
          "name": "_nft",
          "type": "address"
        },
        {
          "internalType": "uint256",
          "name": "_tokenId",
          "type": "uint256"
        }
      ],
      "name": "bid",
      "outputs": [],
      "stateMutability": "payable",
      "type": "function"
    },
    {
      "inputs": [
        {
          "internalType": "address",
          "name": "",
          "type": "address"
        },
        {
          "internalType": "uint256",
          "name": "",
          "type": "uint256"
        },
        {
          "internalType": "address",
          "name": "",
          "type": "address"
        }
      ],
      "name": "bids",
      "outputs": [
        {
          "internalType": "uint256",
          "name": "",
          "type": "uint256"
        }
      ],
      "stateMutability": "view",
      "type": "function"
    },
    {
      "inputs": [
        {
          "internalType": "address",
          "name": "_nft",
          "type": "address"
        },
        {
          "internalType": "uint256",
          "name": "_tokenId",
          "type": "uint256"
        }
      ],
      "name": "cancelAuction",
      "outputs": [],
      "stateMutability": "nonpayable",
      "type": "function"
    },
    {
      "inputs": [
        {
          "internalType": "address",
          "name": "_nft",
          "type": "address"
        },
        {
          "internalType": "uint256",
          "name": "_tokenId",
          "type": "uint256"
        },
        {
          "internalType": "uint128",
          "name": "_price",
          "type": "uint128"
        },
        {
          "internalType": "uint256",
          "name": "_duration",
          "type": "uint256"
        }
      ],
      "name": "createTokenAuction",
      "outputs": [],
      "stateMutability": "nonpayable",
      "type": "function"
    },
    {
      "inputs": [
        {
          "internalType": "address",
          "name": "_nft",
          "type": "address"
        },
        {
          "internalType": "uint256",
          "name": "_tokenId",
          "type": "uint256"
        }
      ],
      "name": "executeSale",
      "outputs": [],
      "stateMutability": "nonpayable",
      "type": "function"
    },
    {
      "inputs": [
        {
          "internalType": "address",
          "name": "_nft",
          "type": "address"
        },
        {
          "internalType": "uint256",
          "name": "_tokenId",
          "type": "uint256"
        }
      ],
      "name": "getTokenAuctionDetails",
      "outputs": [
        {
          "components": [
            {
              "internalType": "address",
              "name": "seller",
              "type": "address"
            },
            {
              "internalType": "uint128",
              "name": "price",
              "type": "uint128"
            },
            {
              "internalType": "uint256",
              "name": "duration",
              "type": "uint256"
            },
            {
              "internalType": "uint256",
              "name": "maxBid",
              "type": "uint256"
            },
            {
              "internalType": "address",
              "name": "maxBidUser",
              "type": "address"
            },
            {
              "internalType": "bool",
              "name": "isActive",
              "type": "bool"
            },
            {
              "internalType": "uint256[]",
              "name": "bidAmounts",
              "type": "uint256[]"
            },
            {
              "internalType": "address[]",
              "name": "users",
              "type": "address[]"
            }
          ],
          "internalType": "struct Auction.tokenDetails",
          "name": "",
          "type": "tuple"
        }
      ],
      "stateMutability": "view",
      "type": "function"
    },
    {
      "inputs": [
        {
          "internalType": "address",
          "name": "",
          "type": "address"
        },
        {
          "internalType": "address",
          "name": "",
          "type": "address"
        },
        {
          "internalType": "uint256",
          "name": "",
          "type": "uint256"
        },
        {
          "internalType": "bytes",
          "name": "",
          "type": "bytes"
        }
      ],
      "name": "onERC721Received",
      "outputs": [
        {
          "internalType": "bytes4",
          "name": "",
          "type": "bytes4"
        }
      ],
      "stateMutability": "pure",
      "type": "function"
    },
    {
      "inputs": [
        {
          "internalType": "address",
          "name": "",
          "type": "address"
        },
        {
          "internalType": "uint256",
          "name": "",
          "type": "uint256"
        }
      ],
      "name": "tokenToAuction",
      "outputs": [
        {
          "internalType": "address",
          "name": "seller",
          "type": "address"
        },
        {
          "internalType": "uint128",
          "name": "price",
          "type": "uint128"
        },
        {
          "internalType": "uint256",
          "name": "duration",
          "type": "uint256"
        },
        {
          "internalType": "uint256",
          "name": "maxBid",
          "type": "uint256"
        },
        {
          "internalType": "address",
          "name": "maxBidUser",
          "type": "address"
        },
        {
          "internalType": "bool",
          "name": "isActive",
          "type": "bool"
        }
      ],
      "stateMutability": "view",
      "type": "function"
    },
    {
      "stateMutability": "payable",
      "type": "receive"
    }
  ],
  "bytecode": "0x608060405234801561001057600080fd5b50611507806100206000396000f3fe60806040526004361061007f5760003560e01c80637bed72321161004e5780637bed7232146101eb578063859b97fe1461020b578063cf680c691461022b578063dd7689221461024b57600080fd5b8063150b7a021461008b57806359d667a5146100ee578063722565c5146101035780637792ba5f1461013057600080fd5b3661008657005b600080fd5b34801561009757600080fd5b506100d06100a63660046111d4565b7f150b7a023d4804d13e8c85fb27262cb750cf6ba9f9dd3bb30d90f482ceeb4b1f95945050505050565b6040516001600160e01b031990911681526020015b60405180910390f35b6101016100fc36600461126a565b610297565b005b34801561010f57600080fd5b5061012361011e36600461126a565b6105f5565b6040516100e591906113e0565b34801561013c57600080fd5b506101a361014b36600461126a565b6000602081815292815260408082209093529081522080546001820154600283015460038401546004909401546001600160a01b03938416946001600160801b0390931693919291811690600160a01b900460ff1686565b604080516001600160a01b0397881681526001600160801b039096166020870152850193909352606084019190915292909216608082015290151560a082015260c0016100e5565b3480156101f757600080fd5b5061010161020636600461126a565b610794565b34801561021757600080fd5b5061010161022636600461126a565b610b70565b34801561023757600080fd5b506101016102463660046112ce565b610dd3565b34801561025757600080fd5b50610289610266366004611293565b600160209081526000938452604080852082529284528284209052825290205481565b6040519081526020016100e5565b6001600160a01b038216600090815260208181526040808320848452909152902060018101546001600160801b03163410156103265760405162461bcd60e51b8152602060048201526024808201527f626964207072696365206973206c657373207468616e2063757272656e7420706044820152637269636560e01b60648201526084015b60405180910390fd5b6004810154600160a01b900460ff166103515760405162461bcd60e51b815260040161031d906113b4565b428160020154116103a45760405162461bcd60e51b815260206004820152601760248201527f446561646c696e6520616c726561647920706173736564000000000000000000604482015260640161031d565b6001600160a01b0383166000908152600160209081526040808320858452825280832033845290915290205415610451576001600160a01b038316600090815260016020908152604080832085845282528083203380855292528083205490518381818185875af1925050503d806000811461043c576040519150601f19603f3d011682016040523d82523d6000602084013e610441565b606091505b505090508061044f57600080fd5b505b6001600160a01b03831660009081526001602090815260408083208584528252808320338452909152902034905560058101546104a7573460038201556004810180546001600160a01b03191633179055610565565b60058101546000906104bb90600190611489565b9050348260050182815481106104e157634e487b7160e01b600052603260045260246000fd5b9060005260206000200154106105495760405162461bcd60e51b815260206004820152602760248201527f43757272656e74206d61782062696420697320686967686572207468616e20796044820152661bdd5c88189a5960ca1b606482015260840161031d565b503460038201556004810180546001600160a01b031916331790555b600681018054600181810183556000928352602080842090920180546001600160a01b03191633179055600584018054918201815583529120349101556040517feecd0003b5103bde7d0159924568ae941cf12f9f37850b706de61ddb7baf12a8906105e890859085906001600160a01b03929092168252602082015260400190565b60405180910390a1505050565b61065a60405180610100016040528060006001600160a01b0316815260200160006001600160801b03168152602001600081526020016000815260200160006001600160a01b0316815260200160001515815260200160608152602001606081525090565b6001600160a01b03838116600090815260208181526040808320868452825280832081516101008101835281548616815260018201546001600160801b0316818501526002820154818401526003820154606082015260048201549586166080820152600160a01b90950460ff16151560a0860152600581018054835181860281018601909452808452949594919360c0860193929083018282801561071f57602002820191906000526020600020905b81548152602001906001019080831161070b575b505050505081526020016006820180548060200260200160405190810160405280929190818152602001828054801561078157602002820191906000526020600020905b81546001600160a01b03168152600190910190602001808311610763575b5050509190925250919695505050505050565b6001600160a01b038216600090815260208181526040808320848452909152902060028101544210156108095760405162461bcd60e51b815260206004820152601960248201527f446561646c696e6520646964206e6f7420706173732079657400000000000000604482015260640161031d565b80546001600160a01b0316331461084f5760405162461bcd60e51b815260206004820152600a6024820152692737ba1039b2b63632b960b11b604482015260640161031d565b6004810154600160a01b900460ff1661087a5760405162461bcd60e51b815260040161031d906113b4565b60048101805460ff60a01b1916905560058101546108fc578054604051632142170760e11b81526001600160a01b03808616926342842e0e926108c592309216908790600401611390565b600060405180830381600087803b1580156108df57600080fd5b505af11580156108f3573d6000803e3d6000fd5b50505050610b31565b805460038201546040516000926001600160a01b031691908381818185875af1925050503d806000811461094c576040519150601f19603f3d011682016040523d82523d6000602084013e610951565b606091505b505090508061095f57600080fd5b60005b6006830154811015610ac55760048301546006840180546001600160a01b0390921691839081106109a357634e487b7160e01b600052603260045260246000fd5b6000918252602090912001546001600160a01b031614610ab3578260060181815481106109e057634e487b7160e01b600052603260045260246000fd5b60009182526020808320909101546001600160a01b0388811684526001835260408085208986529093529183206006870180549390921693909290919085908110610a3b57634e487b7160e01b600052603260045260246000fd5b6000918252602080832091909101546001600160a01b0316835282019290925260409081018220549051909181818185875af1925050503d8060008114610a9e576040519150601f19603f3d011682016040523d82523d6000602084013e610aa3565b606091505b50508092505081610ab357600080fd5b80610abd816114a0565b915050610962565b50600482810154604051632142170760e11b81526001600160a01b03878116936342842e0e93610afd93309390911691899101611390565b600060405180830381600087803b158015610b1757600080fd5b505af1158015610b2b573d6000803e3d6000fd5b50505050505b604080516001600160a01b0385168152602081018490527fef3085cdd613ba0cc60eb1f93d9f5a92fa95ee54e54c973bee8ef64bb7d50e8091016105e8565b6001600160a01b03808316600090815260208181526040808320858452909152902080549091163314610bd25760405162461bcd60e51b815260206004820152600a6024820152692737ba1039b2b63632b960b11b604482015260640161031d565b6004810154600160a01b900460ff16610bfd5760405162461bcd60e51b815260040161031d906113b4565b60048101805460ff60a01b191690556000805b6006830154811015610d2457826006018181548110610c3f57634e487b7160e01b600052603260045260246000fd5b60009182526020808320909101546001600160a01b0388811684526001835260408085208986529093529183206006870180549390921693909290919085908110610c9a57634e487b7160e01b600052603260045260246000fd5b6000918252602080832091909101546001600160a01b0316835282019290925260409081018220549051909181818185875af1925050503d8060008114610cfd576040519150601f19603f3d011682016040523d82523d6000602084013e610d02565b606091505b50508092505081610d1257600080fd5b80610d1c816114a0565b915050610c10565b508154604051632142170760e11b81526001600160a01b03808716926342842e0e92610d5892309216908890600401611390565b600060405180830381600087803b158015610d7257600080fd5b505af1158015610d86573d6000803e3d6000fd5b5050604080516001600160a01b0388168152602081018790527fa73b7b0cdfa779c8f02dbbf0e52de2c53b23f00e6e671ef7cea8d7c97e416fb5935001905060405180910390a150505050565b33610e125760405162461bcd60e51b815260206004820152600f60248201526e496e76616c6964204164647265737360881b604482015260640161031d565b6001600160a01b038416610e5a5760405162461bcd60e51b815260206004820152600f60248201526e125b9d985b1a59081058d8dbdd5b9d608a1b604482015260640161031d565b6000826001600160801b031611610eb35760405162461bcd60e51b815260206004820152601b60248201527f50726963652073686f756c64206265206d6f7265207468616e20300000000000604482015260640161031d565b60008111610efc5760405162461bcd60e51b8152602060048201526016602482015275496e76616c6964206475726174696f6e2076616c756560501b604482015260640161031d565b6040805161010081018252338082526001600160801b03851660208084019190915282840185905260006060840181905260808401819052600160a08501528451818152808301865260c08501528451908152908101845260e08301529151632142170760e11b81529091906001600160a01b038716906342842e0e90610f8b90849030908a90600401611390565b600060405180830381600087803b158015610fa557600080fd5b505af1158015610fb9573d6000803e3d6000fd5b505050506001600160a01b03868116600090815260208181526040808320898452825291829020855181546001600160a01b031916908516178155858201516001820180546fffffffffffffffffffffffffffffffff19166001600160801b0390921691909117905591850151600283015560608501516003830155608085015160048301805460a0880151929095166001600160a81b031990951694909417600160a01b911515919091021790925560c084015180518593611083926005850192910190611103565b5060e0820151805161109f91600684019160209091019061114e565b5050604080516001600160a01b0389168152602081018890526001600160801b038716818301526060810186905290517fc73a2eae6a01f3c3a5184fb4526951a84850204fd860a2633e2e495db023b2eb92509081900360800190a1505050505050565b82805482825590600052602060002090810192821561113e579160200282015b8281111561113e578251825591602001919060010190611123565b5061114a9291506111a3565b5090565b82805482825590600052602060002090810192821561113e579160200282015b8281111561113e57825182546001600160a01b0319166001600160a01b0390911617825560209092019160019091019061116e565b5b8082111561114a57600081556001016111a4565b80356001600160a01b03811681146111cf57600080fd5b919050565b6000806000806000608086880312156111eb578081fd5b6111f4866111b8565b9450611202602087016111b8565b935060408601359250606086013567ffffffffffffffff80821115611225578283fd5b818801915088601f830112611238578283fd5b813581811115611246578384fd5b896020828501011115611257578384fd5b9699959850939650602001949392505050565b6000806040838503121561127c578182fd5b611285836111b8565b946020939093013593505050565b6000806000606084860312156112a7578283fd5b6112b0846111b8565b9250602084013591506112c5604085016111b8565b90509250925092565b600080600080608085870312156112e3578384fd5b6112ec856111b8565b93506020850135925060408501356001600160801b038116811461130e578283fd5b9396929550929360600135925050565b6000815180845260208085019450808401835b838110156113565781516001600160a01b031687529582019590820190600101611331565b509495945050505050565b6000815180845260208085019450808401835b8381101561135657815187529582019590820190600101611374565b6001600160a01b039384168152919092166020820152604081019190915260600190565b60208082526012908201527161756374696f6e206e6f742061637469766560701b604082015260600190565b602080825282516001600160a01b0316828201528201516001600160801b0381166040830152600090506040830151606083015260608301516080830152608083015161143860a08401826001600160a01b03169052565b5060a083015180151560c08401525060c08301516101008060e0850152611463610120850183611361565b915060e0850151601f19858403018286015261147f838261131e565b9695505050505050565b60008282101561149b5761149b6114bb565b500390565b60006000198214156114b4576114b46114bb565b5060010190565b634e487b7160e01b600052601160045260246000fdfea2646970667358221220eed484294777ec79384a9b9411464fe7a940bfbf57085a8aa7654f58b05913dc64736f6c63430008040033",
  "linkReferences": {},
  "deployedLinkReferences": {}
}